{
  "contractName": "Attrition",
  "abi": [
    {
      "constant": true,
      "inputs": [],
      "name": "jackpotRunnerUp",
      "outputs": [
        {
          "name": "",
          "type": "uint256"
        }
      ],
      "payable": false,
      "stateMutability": "view",
      "type": "function"
    },
    {
      "constant": true,
      "inputs": [],
      "name": "round",
      "outputs": [
        {
          "name": "",
          "type": "uint256"
        }
      ],
      "payable": false,
      "stateMutability": "view",
      "type": "function"
    },
    {
      "constant": true,
      "inputs": [],
      "name": "TICKET_PRICE",
      "outputs": [
        {
          "name": "",
          "type": "uint256"
        }
      ],
      "payable": false,
      "stateMutability": "view",
      "type": "function"
    },
    {
      "constant": true,
      "inputs": [
        {
          "name": "",
          "type": "address"
        }
      ],
      "name": "balances",
      "outputs": [
        {
          "name": "",
          "type": "uint256"
        }
      ],
      "payable": false,
      "stateMutability": "view",
      "type": "function"
    },
    {
      "constant": true,
      "inputs": [],
      "name": "TIME_WINDOW",
      "outputs": [
        {
          "name": "",
          "type": "uint256"
        }
      ],
      "payable": false,
      "stateMutability": "view",
      "type": "function"
    },
    {
      "constant": true,
      "inputs": [
        {
          "name": "",
          "type": "address"
        }
      ],
      "name": "playerId",
      "outputs": [
        {
          "name": "",
          "type": "uint256"
        }
      ],
      "payable": false,
      "stateMutability": "view",
      "type": "function"
    },
    {
      "constant": false,
      "inputs": [],
      "name": "unpause",
      "outputs": [],
      "payable": false,
      "stateMutability": "nonpayable",
      "type": "function"
    },
    {
      "constant": true,
      "inputs": [],
      "name": "gameRoundWindow",
      "outputs": [
        {
          "name": "",
          "type": "uint256"
        }
      ],
      "payable": false,
      "stateMutability": "view",
      "type": "function"
    },
    {
      "constant": true,
      "inputs": [],
      "name": "paused",
      "outputs": [
        {
          "name": "",
          "type": "bool"
        }
      ],
      "payable": false,
      "stateMutability": "view",
      "type": "function"
    },
    {
      "constant": true,
      "inputs": [],
      "name": "TIME_CAP",
      "outputs": [
        {
          "name": "",
          "type": "uint256"
        }
      ],
      "payable": false,
      "stateMutability": "view",
      "type": "function"
    },
    {
      "constant": true,
      "inputs": [],
      "name": "jackpot",
      "outputs": [
        {
          "name": "",
          "type": "uint256"
        }
      ],
      "payable": false,
      "stateMutability": "view",
      "type": "function"
    },
    {
      "constant": false,
      "inputs": [],
      "name": "renounceOwnership",
      "outputs": [],
      "payable": false,
      "stateMutability": "nonpayable",
      "type": "function"
    },
    {
      "constant": false,
      "inputs": [],
      "name": "pause",
      "outputs": [],
      "payable": false,
      "stateMutability": "nonpayable",
      "type": "function"
    },
    {
      "constant": true,
      "inputs": [],
      "name": "owner",
      "outputs": [
        {
          "name": "",
          "type": "address"
        }
      ],
      "payable": false,
      "stateMutability": "view",
      "type": "function"
    },
    {
      "constant": true,
      "inputs": [],
      "name": "lastTimeOfNewTicket",
      "outputs": [
        {
          "name": "",
          "type": "uint256"
        }
      ],
      "payable": false,
      "stateMutability": "view",
      "type": "function"
    },
    {
      "constant": true,
      "inputs": [
        {
          "name": "",
          "type": "uint256"
        }
      ],
      "name": "player",
      "outputs": [
        {
          "name": "",
          "type": "address"
        }
      ],
      "payable": false,
      "stateMutability": "view",
      "type": "function"
    },
    {
      "constant": true,
      "inputs": [],
      "name": "id",
      "outputs": [
        {
          "name": "",
          "type": "uint256"
        }
      ],
      "payable": false,
      "stateMutability": "view",
      "type": "function"
    },
    {
      "constant": true,
      "inputs": [],
      "name": "playerDividends",
      "outputs": [
        {
          "name": "",
          "type": "uint256"
        }
      ],
      "payable": false,
      "stateMutability": "view",
      "type": "function"
    },
    {
      "constant": true,
      "inputs": [],
      "name": "gameRoundTime",
      "outputs": [
        {
          "name": "",
          "type": "uint256"
        }
      ],
      "payable": false,
      "stateMutability": "view",
      "type": "function"
    },
    {
      "constant": true,
      "inputs": [],
      "name": "jackpotNextRound",
      "outputs": [
        {
          "name": "",
          "type": "uint256"
        }
      ],
      "payable": false,
      "stateMutability": "view",
      "type": "function"
    },
    {
      "constant": false,
      "inputs": [
        {
          "name": "_newOwner",
          "type": "address"
        }
      ],
      "name": "transferOwnership",
      "outputs": [],
      "payable": false,
      "stateMutability": "nonpayable",
      "type": "function"
    },
    {
      "constant": true,
      "inputs": [
        {
          "name": "",
          "type": "uint256"
        }
      ],
      "name": "players",
      "outputs": [
        {
          "name": "playerAddress",
          "type": "address"
        },
        {
          "name": "playerSince",
          "type": "uint256"
        }
      ],
      "payable": false,
      "stateMutability": "view",
      "type": "function"
    },
    {
      "inputs": [],
      "payable": true,
      "stateMutability": "payable",
      "type": "constructor"
    },
    {
      "payable": true,
      "stateMutability": "payable",
      "type": "fallback"
    },
    {
      "anonymous": false,
      "inputs": [
        {
          "indexed": false,
          "name": "addr",
          "type": "address"
        },
        {
          "indexed": false,
          "name": "sinceTimestamp",
          "type": "uint256"
        }
      ],
      "name": "LogPlayer",
      "type": "event"
    },
    {
      "anonymous": false,
      "inputs": [
        {
          "indexed": false,
          "name": "winner",
          "type": "address"
        },
        {
          "indexed": false,
          "name": "prize",
          "type": "uint256"
        }
      ],
      "name": "LogGameRoundEnded",
      "type": "event"
    },
    {
      "anonymous": false,
      "inputs": [
        {
          "indexed": false,
          "name": "runnerUp",
          "type": "address"
        },
        {
          "indexed": false,
          "name": "runnerUpPrize",
          "type": "uint256"
        }
      ],
      "name": "LogGameRoundStarted",
      "type": "event"
    },
    {
      "anonymous": false,
      "inputs": [],
      "name": "Pause",
      "type": "event"
    },
    {
      "anonymous": false,
      "inputs": [],
      "name": "Unpause",
      "type": "event"
    },
    {
      "anonymous": false,
      "inputs": [
        {
          "indexed": true,
          "name": "previousOwner",
          "type": "address"
        }
      ],
      "name": "OwnershipRenounced",
      "type": "event"
    },
    {
      "anonymous": false,
      "inputs": [
        {
          "indexed": true,
          "name": "previousOwner",
          "type": "address"
        },
        {
          "indexed": true,
          "name": "newOwner",
          "type": "address"
        }
      ],
      "name": "OwnershipTransferred",
      "type": "event"
    },
    {
      "constant": false,
      "inputs": [],
      "name": "buyNewTicket",
      "outputs": [],
      "payable": true,
      "stateMutability": "payable",
      "type": "function"
    },
    {
      "constant": false,
      "inputs": [],
      "name": "withdraw",
      "outputs": [
        {
          "name": "",
          "type": "bool"
        }
      ],
      "payable": false,
      "stateMutability": "nonpayable",
      "type": "function"
    },
    {
      "constant": false,
      "inputs": [],
      "name": "kill",
      "outputs": [],
      "payable": false,
      "stateMutability": "nonpayable",
      "type": "function"
    }
  ],
  "bytecode": "0x608060405260008060146101000a81548160ff021916908315150217905550336000806101000a81548173ffffffffffffffffffffffffffffffffffffffff021916908373ffffffffffffffffffffffffffffffffffffffff160217905550336000806101000a81548173ffffffffffffffffffffffffffffffffffffffff021916908373ffffffffffffffffffffffffffffffffffffffff160217905550620000b9600062000256640100000000026401000000009004565b620000f46000809054906101000a900473ffffffffffffffffffffffffffffffffffffffff1662000256640100000000026401000000009004565b60016000809054906101000a900473ffffffffffffffffffffffffffffffffffffffff1690806001815401808255809150509060018203906000526020600020016000909192909190916101000a81548173ffffffffffffffffffffffffffffffffffffffff021916908373ffffffffffffffffffffffffffffffffffffffff160217905550506000600260008060009054906101000a900473ffffffffffffffffffffffffffffffffffffffff1673ffffffffffffffffffffffffffffffffffffffff1673ffffffffffffffffffffffffffffffffffffffff1681526020019081526020016000208190555042600a819055506200020f61012c600a546200041b64010000000002620019d6179091906401000000009004565b600c819055506200023b601e600c54620004a46401000000000262001951179091906401000000009004565b600d81905550346006819055506001600b81905550620005b0565b600360008273ffffffffffffffffffffffffffffffffffffffff1673ffffffffffffffffffffffffffffffffffffffff16815260200190815260200160002054600581905550600060055414156200030e57600480549050600360008373ffffffffffffffffffffffffffffffffffffffff1673ffffffffffffffffffffffffffffffffffffffff16815260200190815260200160002081905550600480548091906001016200030791906200052a565b6005819055505b60408051908101604052808273ffffffffffffffffffffffffffffffffffffffff1681526020014281525060046005548154811015156200034b57fe5b906000526020600020906002020160008201518160000160006101000a81548173ffffffffffffffffffffffffffffffffffffffff021916908373ffffffffffffffffffffffffffffffffffffffff160217905550602082015181600101559050507f813a969fa1b9d41b87ee83d321fd832df34a800a4e650fe262d8c2b4dfd81cf68142604051808373ffffffffffffffffffffffffffffffffffffffff1673ffffffffffffffffffffffffffffffffffffffff1681526020018281526020019250505060405180910390a150565b600081830190508281101515156200049b576040517f08c379a00000000000000000000000000000000000000000000000000000000081526004018080602001828103825260138152602001807f536166654d61746820616464206661696c65640000000000000000000000000081525060200191505060405180910390fd5b80905092915050565b60008282111515156200051f576040517f08c379a00000000000000000000000000000000000000000000000000000000081526004018080602001828103825260138152602001807f536166654d61746820737562206661696c65640000000000000000000000000081525060200191505060405180910390fd5b818303905092915050565b8154818355818111156200055a576002028160020283600052602060002091820191016200055991906200055f565b5b505050565b620005ad91905b80821115620005a957600080820160006101000a81549073ffffffffffffffffffffffffffffffffffffffff021916905560018201600090555060020162000566565b5090565b90565b611bae80620005c06000396000f300608060405260043610610149576000357c0100000000000000000000000000000000000000000000000000000000900463ffffffff1680630fdc872f1461015d578063146ca531146101885780631a95f15f146101b357806327e235e3146101de5780632e60d931146102355780633cbd6429146102605780633ccfd60b146102b75780633f4ba83a146102e6578063402239cb146102fd57806341c0e1b5146103285780635c975abb1461033f578063657a27401461036e5780636b31ee0114610399578063715018a6146103c45780638456cb59146103db5780638da5cb5b146103f257806391cc7c67146104495780639e0551c614610474578063af640d0f146104e1578063babb26411461050c578063d07cdd1114610537578063d0b7270414610541578063ed18d4171461056c578063f2fde38b14610597578063f71d96cb146105da575b60008036905014151561015b57600080fd5b005b34801561016957600080fd5b5061017261064e565b6040518082815260200191505060405180910390f35b34801561019457600080fd5b5061019d610654565b6040518082815260200191505060405180910390f35b3480156101bf57600080fd5b506101c861065a565b6040518082815260200191505060405180910390f35b3480156101ea57600080fd5b5061021f600480360381019080803573ffffffffffffffffffffffffffffffffffffffff169060200190929190505050610666565b6040518082815260200191505060405180910390f35b34801561024157600080fd5b5061024a61067e565b6040518082815260200191505060405180910390f35b34801561026c57600080fd5b506102a1600480360381019080803573ffffffffffffffffffffffffffffffffffffffff169060200190929190505050610683565b6040518082815260200191505060405180910390f35b3480156102c357600080fd5b506102cc61069b565b604051808215151515815260200191505060405180910390f35b3480156102f257600080fd5b506102fb6107c0565b005b34801561030957600080fd5b5061031261087e565b6040518082815260200191505060405180910390f35b34801561033457600080fd5b5061033d610884565b005b34801561034b57600080fd5b50610354610919565b604051808215151515815260200191505060405180910390f35b34801561037a57600080fd5b5061038361092c565b6040518082815260200191505060405180910390f35b3480156103a557600080fd5b506103ae610932565b6040518082815260200191505060405180910390f35b3480156103d057600080fd5b506103d9610938565b005b3480156103e757600080fd5b506103f0610a3a565b005b3480156103fe57600080fd5b50610407610afa565b604051808273ffffffffffffffffffffffffffffffffffffffff1673ffffffffffffffffffffffffffffffffffffffff16815260200191505060405180910390f35b34801561045557600080fd5b5061045e610b1f565b6040518082815260200191505060405180910390f35b34801561048057600080fd5b5061049f60048036038101908080359060200190929190505050610b25565b604051808273ffffffffffffffffffffffffffffffffffffffff1673ffffffffffffffffffffffffffffffffffffffff16815260200191505060405180910390f35b3480156104ed57600080fd5b506104f6610b63565b6040518082815260200191505060405180910390f35b34801561051857600080fd5b50610521610b69565b6040518082815260200191505060405180910390f35b61053f610b6f565b005b34801561054d57600080fd5b50610556610e34565b6040518082815260200191505060405180910390f35b34801561057857600080fd5b50610581610e3a565b6040518082815260200191505060405180910390f35b3480156105a357600080fd5b506105d8600480360381019080803573ffffffffffffffffffffffffffffffffffffffff169060200190929190505050610e40565b005b3480156105e657600080fd5b5061060560048036038101908080359060200190929190505050610ea7565b604051808373ffffffffffffffffffffffffffffffffffffffff1673ffffffffffffffffffffffffffffffffffffffff1681526020018281526020019250505060405180910390f35b60075481565b600b5481565b67016345785d8a000081565b60026020528060005260406000206000915090505481565b601e81565b60036020528060005260406000206000915090505481565b600080600260003373ffffffffffffffffffffffffffffffffffffffff1673ffffffffffffffffffffffffffffffffffffffff16815260200190815260200160002054905060008111156107b7576000600260003373ffffffffffffffffffffffffffffffffffffffff1673ffffffffffffffffffffffffffffffffffffffff168152602001908152602001600020819055503373ffffffffffffffffffffffffffffffffffffffff166108fc829081150290604051600060405180830381858888f1935050505015156107b65780600260003373ffffffffffffffffffffffffffffffffffffffff1673ffffffffffffffffffffffffffffffffffffffff16815260200190815260200160002081905550600091506107bc565b5b600191505b5090565b6000809054906101000a900473ffffffffffffffffffffffffffffffffffffffff1673ffffffffffffffffffffffffffffffffffffffff163373ffffffffffffffffffffffffffffffffffffffff1614151561081b57600080fd5b600060149054906101000a900460ff16151561083657600080fd5b60008060146101000a81548160ff0219169083151502179055507f7805862f689e2f13df9f062ff482ad3ad112aca9e0847911ed832e158c525b3360405160405180910390a1565b600d5481565b6000809054906101000a900473ffffffffffffffffffffffffffffffffffffffff1673ffffffffffffffffffffffffffffffffffffffff163373ffffffffffffffffffffffffffffffffffffffff161415156108df57600080fd5b6000809054906101000a900473ffffffffffffffffffffffffffffffffffffffff1673ffffffffffffffffffffffffffffffffffffffff16ff5b600060149054906101000a900460ff1681565b61012c81565b60065481565b6000809054906101000a900473ffffffffffffffffffffffffffffffffffffffff1673ffffffffffffffffffffffffffffffffffffffff163373ffffffffffffffffffffffffffffffffffffffff1614151561099357600080fd5b6000809054906101000a900473ffffffffffffffffffffffffffffffffffffffff1673ffffffffffffffffffffffffffffffffffffffff167ff8df31144d9c2f0f6b59d69b8b98abd5459d07f2742c4df920b25aae33c6482060405160405180910390a260008060006101000a81548173ffffffffffffffffffffffffffffffffffffffff021916908373ffffffffffffffffffffffffffffffffffffffff160217905550565b6000809054906101000a900473ffffffffffffffffffffffffffffffffffffffff1673ffffffffffffffffffffffffffffffffffffffff163373ffffffffffffffffffffffffffffffffffffffff16141515610a9557600080fd5b600060149054906101000a900460ff16151515610ab157600080fd5b6001600060146101000a81548160ff0219169083151502179055507f6985a02210a168e66602d3235cb6db0e70f92b3ba4d376a33c0f3d9434bff62560405160405180910390a1565b6000809054906101000a900473ffffffffffffffffffffffffffffffffffffffff1681565b600a5481565b600181815481101515610b3457fe5b906000526020600020016000915054906101000a900473ffffffffffffffffffffffffffffffffffffffff1681565b60055481565b60095481565b6000600360003373ffffffffffffffffffffffffffffffffffffffff1673ffffffffffffffffffffffffffffffffffffffff16815260200190815260200160002054141515610c26576040517f08c379a000000000000000000000000000000000000000000000000000000000815260040180806020018281038252601c8152602001807f4f6e6c79206f6e65207469636b65742070657220616464726573732e0000000081525060200191505060405180910390fd5b600060149054906101000a900460ff16151515610c4257600080fd5b600c5442101580610c545750600d5442105b1515610cc8576040517f08c379a00000000000000000000000000000000000000000000000000000000081526004018080602001828103825260168152602001807f3330207365636f6e64732074696d652077696e646f770000000000000000000081525060200191505060405180910390fd5b67016345785d8a00003410151515610d6e576040517f08c379a00000000000000000000000000000000000000000000000000000000081526004018080602001828103825260298152602001807f596f75206d75737420706179206174206c6561737420302e313020657468657281526020017f20746f20706c61792e000000000000000000000000000000000000000000000081525060400191505060405180910390fd5b610d7733610efa565b60013390806001815401808255809150509060018203906000526020600020016000909192909190916101000a81548173ffffffffffffffffffffffffffffffffffffffff021916908373ffffffffffffffffffffffffffffffffffffffff160217905550506000600260003373ffffffffffffffffffffffffffffffffffffffff1673ffffffffffffffffffffffffffffffffffffffff1681526020019081526020016000208190555042600a81905550610e32346110bb565b565b600c5481565b60085481565b6000809054906101000a900473ffffffffffffffffffffffffffffffffffffffff1673ffffffffffffffffffffffffffffffffffffffff163373ffffffffffffffffffffffffffffffffffffffff16141515610e9b57600080fd5b610ea481611857565b50565b600481815481101515610eb657fe5b90600052602060002090600202016000915090508060000160009054906101000a900473ffffffffffffffffffffffffffffffffffffffff16908060010154905082565b600360008273ffffffffffffffffffffffffffffffffffffffff1673ffffffffffffffffffffffffffffffffffffffff1681526020019081526020016000205460058190555060006005541415610faf57600480549050600360008373ffffffffffffffffffffffffffffffffffffffff1673ffffffffffffffffffffffffffffffffffffffff1681526020019081526020016000208190555060048054809190600101610fa89190611b02565b6005819055505b60408051908101604052808273ffffffffffffffffffffffffffffffffffffffff168152602001428152506004600554815481101515610feb57fe5b906000526020600020906002020160008201518160000160006101000a81548173ffffffffffffffffffffffffffffffffffffffff021916908373ffffffffffffffffffffffffffffffffffffffff160217905550602082015181600101559050507f813a969fa1b9d41b87ee83d321fd832df34a800a4e650fe262d8c2b4dfd81cf68142604051808373ffffffffffffffffffffffffffffffffffffffff1673ffffffffffffffffffffffffffffffffffffffff1681526020018281526020019250505060405180910390a150565b6000600c54600a541015156114f85761116c6006546002600060016110ec600260055461195190919063ffffffff16565b8154811015156110f857fe5b9060005260206000200160009054906101000a900473ffffffffffffffffffffffffffffffffffffffff1673ffffffffffffffffffffffffffffffffffffffff1673ffffffffffffffffffffffffffffffffffffffff168152602001908152602001600020546119d690919063ffffffff16565b600260006001611188600260055461195190919063ffffffff16565b81548110151561119457fe5b9060005260206000200160009054906101000a900473ffffffffffffffffffffffffffffffffffffffff1673ffffffffffffffffffffffffffffffffffffffff1673ffffffffffffffffffffffffffffffffffffffff168152602001908152602001600020819055507faa04da94b52a7b7a17e81a258981ffd64c87a5dcd27ca493217605e2b551abb16001611236600260055461195190919063ffffffff16565b81548110151561124257fe5b9060005260206000200160009054906101000a900473ffffffffffffffffffffffffffffffffffffffff16600654604051808373ffffffffffffffffffffffffffffffffffffffff1673ffffffffffffffffffffffffffffffffffffffff1681526020018281526020019250505060405180910390a160006006819055506113626007546002600060016112e2600160055461195190919063ffffffff16565b8154811015156112ee57fe5b9060005260206000200160009054906101000a900473ffffffffffffffffffffffffffffffffffffffff1673ffffffffffffffffffffffffffffffffffffffff1673ffffffffffffffffffffffffffffffffffffffff168152602001908152602001600020546119d690919063ffffffff16565b60026000600161137e600160055461195190919063ffffffff16565b81548110151561138a57fe5b9060005260206000200160009054906101000a900473ffffffffffffffffffffffffffffffffffffffff1673ffffffffffffffffffffffffffffffffffffffff1673ffffffffffffffffffffffffffffffffffffffff168152602001908152602001600020819055507f0495744b6e1941de9d63ba928f3ae368f7309808d77e81c4815b9a2dc274a2a1600161142c600160055461195190919063ffffffff16565b81548110151561143857fe5b9060005260206000200160009054906101000a900473ffffffffffffffffffffffffffffffffffffffff16600754604051808373ffffffffffffffffffffffffffffffffffffffff1673ffffffffffffffffffffffffffffffffffffffff1681526020018281526020019250505060405180910390a16114c56008546006546119d690919063ffffffff16565b600681905550600060088190555060006007819055506114f16001600b546119d690919063ffffffff16565b600b819055505b61150f61012c600a546119d690919063ffffffff16565b600c8190555061152b601e600c5461195190919063ffffffff16565b600d81905550611565611554602360648581151561154557fe5b04611a5e90919063ffffffff16565b6006546119d690919063ffffffff16565b60068190555061159f61158e600560648581151561157f57fe5b04611a5e90919063ffffffff16565b6008546119d690919063ffffffff16565b6008819055506115d96115c860076064858115156115b957fe5b04611a5e90919063ffffffff16565b6007546119d690919063ffffffff16565b60078190555061167161160260036064858115156115f357fe5b04611a5e90919063ffffffff16565b600260008060009054906101000a900473ffffffffffffffffffffffffffffffffffffffff1673ffffffffffffffffffffffffffffffffffffffff1673ffffffffffffffffffffffffffffffffffffffff168152602001908152602001600020546119d690919063ffffffff16565b600260008060009054906101000a900473ffffffffffffffffffffffffffffffffffffffff1673ffffffffffffffffffffffffffffffffffffffff1673ffffffffffffffffffffffffffffffffffffffff168152602001908152602001600020819055506116eb600160055461195190919063ffffffff16565b61170b60326064858115156116fc57fe5b04611a5e90919063ffffffff16565b81151561171457fe5b04600981905550600090505b6001808054905003811015611853576117bc6009546002600060018581548110151561174857fe5b9060005260206000200160009054906101000a900473ffffffffffffffffffffffffffffffffffffffff1673ffffffffffffffffffffffffffffffffffffffff1673ffffffffffffffffffffffffffffffffffffffff168152602001908152602001600020546119d690919063ffffffff16565b600260006001848154811015156117cf57fe5b9060005260206000200160009054906101000a900473ffffffffffffffffffffffffffffffffffffffff1673ffffffffffffffffffffffffffffffffffffffff1673ffffffffffffffffffffffffffffffffffffffff1681526020019081526020016000208190555061184c6001826119d690919063ffffffff16565b9050611720565b5050565b600073ffffffffffffffffffffffffffffffffffffffff168173ffffffffffffffffffffffffffffffffffffffff161415151561189357600080fd5b8073ffffffffffffffffffffffffffffffffffffffff166000809054906101000a900473ffffffffffffffffffffffffffffffffffffffff1673ffffffffffffffffffffffffffffffffffffffff167f8be0079c531659141344cd1fd0a4f28419497f9722a3daafe3b4186f6b6457e060405160405180910390a3806000806101000a81548173ffffffffffffffffffffffffffffffffffffffff021916908373ffffffffffffffffffffffffffffffffffffffff16021790555050565b60008282111515156119cb576040517f08c379a00000000000000000000000000000000000000000000000000000000081526004018080602001828103825260138152602001807f536166654d61746820737562206661696c65640000000000000000000000000081525060200191505060405180910390fd5b818303905092915050565b60008183019050828110151515611a55576040517f08c379a00000000000000000000000000000000000000000000000000000000081526004018080602001828103825260138152602001807f536166654d61746820616464206661696c65640000000000000000000000000081525060200191505060405180910390fd5b80905092915050565b600080831415611a715760009050611afc565b8183029050818382811515611a8257fe5b04141515611af8576040517f08c379a00000000000000000000000000000000000000000000000000000000081526004018080602001828103825260138152602001807f536166654d617468206d756c206661696c65640000000000000000000000000081525060200191505060405180910390fd5b8090505b92915050565b815481835581811115611b2f57600202816002028360005260206000209182019101611b2e9190611b34565b5b505050565b611b7f91905b80821115611b7b57600080820160006101000a81549073ffffffffffffffffffffffffffffffffffffffff0219169055600182016000905550600201611b3a565b5090565b905600a165627a7a7230582073e9389d25473b15a405225c7bd06a8b4e00bd04fe9e4a3f73cec02c205e2d850029",
  "source": "pragma solidity ^0.4.24;\n\n// Importing contracts: Pausable.sol inherits from Ownable.sol\n// Attrition.sol inherits from Pausable.sol\n// Importing library: SafeMath.sol\nimport \"./SafeMath.sol\";\nimport \"./Pausable.sol\";\n\n/**\n  * @title Attrition\n  * @dev The Attrition contract has an owner address, and provides the\n  * functions for the game\n  */\ncontract Attrition is Pausable {\n\n  // Using SafeMath library\n  using SafeMath for uint;\n\n  // Array of addresses from players\n  address[] public player;\n\n  // This stores balance per address\n  mapping (address => uint) public balances;\n\n  // This stores player id per address\n  mapping (address => uint) public playerId;\n\n  // It will represent a single player\n  struct Player {\n    address playerAddress;\n    uint playerSince;\n  }\n\n  // Array of structs of players\n  Player[] public players;\n\n  uint public id;\n\n  // Prize for the last ticket purchased by a player\n  // The winner!\n  uint public jackpot;\n  // Prize for the first ticket purchased after\n  // the winner. The the runner-up\n  uint public jackpotRunnerUp;\n  // A piggy for the next round prize\n  uint public jackpotNextRound;\n  // Dividens per player\n  uint public playerDividends;\n  // Last time of new ticket purchased\n  uint public lastTimeOfNewTicket;\n  uint public round;\n\n  // The ticket price in wei units\n  uint public constant TICKET_PRICE = 10 * 10**16;\n\n  // Times are either absolute unix timestamps (seconds since 1970-01-01)\n  // or time periods in seconds\n  uint public constant TIME_CAP = 300;\n  // Avoiding timestamp miner attacks\n  uint public constant TIME_WINDOW = 30;\n\n  uint public gameRoundTime;\n  uint public gameRoundWindow;\n\n  // Emits player's address and timestamp\n  event LogPlayer(address addr, uint sinceTimestamp);\n\n  // Events that will be fired when ending/starting rounds.\n  event LogGameRoundEnded(address winner, uint prize);\n  event LogGameRoundStarted(address runnerUp, uint runnerUpPrize);\n\n  // A convenient way to validate if it is\n  // a returning address\n  modifier onlyNewPlayers {\n    require(playerId[msg.sender] == 0, \"Only one ticket per address.\");\n    _;\n  }\n\n\n  /**\n    * @dev Constructor mounts a way\n    * to identify returning players and initializes some variables\n    */\n  constructor() public payable {\n    owner = msg.sender;\n\n    // It's necessary to add an empty first player to identify returning players\n    _addPlayer(0);\n    // Adding the owner\n    _addPlayer(owner);\n\n    player.push(owner);\n    balances[owner] = 0;\n\n    lastTimeOfNewTicket = now;\n    gameRoundTime = lastTimeOfNewTicket.add(TIME_CAP);\n    gameRoundWindow = gameRoundTime.sub(TIME_WINDOW);\n\n    jackpot = msg.value;\n    round = 1;\n  }\n\n\n  /**\n    * @dev Fallback function checking data length helps\n    * player to notice that the contract is used incorrectly\n    * and function that do not exist is called.\n    */\n  function() external payable {\n    require(msg.data.length == 0);\n  }\n\n\n  /**\n    * @dev Adds a player\n    * making `targetPlayer a player`\n    * if it is not a returning player\n    *\n    * @param _targetPlayer address of a player to be added\n    */\n  function _addPlayer(address _targetPlayer) private {\n    id = playerId[_targetPlayer];\n\n    if (id == 0) {\n      playerId[_targetPlayer] = players.length;\n      id = players.length++;\n    }\n    players[id] = Player({playerAddress: _targetPlayer, playerSince: now});\n    emit LogPlayer(_targetPlayer, now);\n  }\n\n\n  /**\n    * @dev This function is callable only for new players (addresses)\n    * paying at least the minimum price of the ticket\n    * when the contract is not paused\n    *\n    */\n  function buyNewTicket() public payable onlyNewPlayers whenNotPaused {\n    require((now >= gameRoundTime) || (now < gameRoundWindow), \"30 seconds time window\");\n    require(msg.value >= TICKET_PRICE, \"You must pay at least 0.10 ether to play.\");\n    _addPlayer(msg.sender);\n    player.push(msg.sender);\n    balances[msg.sender] = 0;\n    lastTimeOfNewTicket = now;\n    _returnOnInvestment(msg.value);\n  }\n\n\n  /**\n    * @dev Accounting and distribution of the funds\n    * deposited per player.\n    * Control of the time of the game.\n    */\n  function _returnOnInvestment(uint _amount) private {\n    // Check if the round already ended.\n    // If for 5 minutes no new player purchases a ticket then the round ends.\n    // Fives minutes is = 5 x 60 seconds. This is TIME_CAP\n    if(lastTimeOfNewTicket >= gameRoundTime) {\n      // Sends all jackpot to the previous player\n      balances[player[id.sub(2)]] = balances[player[id.sub(2)]].add(jackpot);\n      emit LogGameRoundEnded(player[id.sub(2)], jackpot);\n      jackpot = 0;\n      // Player is rewarded with jackpotRunnerUp for ending round\n      balances[player[id.sub(1)]] = balances[player[id.sub(1)]].add(jackpotRunnerUp);\n      emit LogGameRoundStarted(player[id.sub(1)], jackpotRunnerUp);\n      // jackpot is now jackpotNextRound\n      jackpot = jackpot.add(jackpotNextRound);\n      jackpotNextRound = 0;\n      jackpotRunnerUp = 0;\n      round = round.add(1);\n    }\n\n    gameRoundTime = lastTimeOfNewTicket.add(TIME_CAP);\n    gameRoundWindow = gameRoundTime.sub(TIME_WINDOW);\n    // Contribution to the current jackpot\n    jackpot = jackpot.add((_amount/100).mul(35));\n    // Contribution to next round jackpot\n    jackpotNextRound = jackpotNextRound.add((_amount/100).mul(5));\n    // Reward to player who will close the current round and start\n    // a new round\n    jackpotRunnerUp = jackpotRunnerUp.add((_amount/100).mul(7));\n    // Reward to the creator of the game\n    balances[owner] = balances[owner].add((_amount/100).mul(3));\n\n    // Return on investment to current players and owner\n    // The last player will start to earn dividends with\n    // the next ticket purchased by a new player\n    playerDividends =  ( (_amount/100).mul(50))/ (id.sub(1));\n    for (uint i = 0; i < (player.length - 1) ; i = i.add(1)) {\n      balances[player[i]] = balances[player[i]].add(playerDividends);\n    }\n  }\n\n\n  /**\n    * @dev Players and owner can withdraw their own funds from balances\n    */\n  function withdraw() public returns (bool) {\n    uint total = balances[msg.sender];\n    if (total > 0) {\n      // It is important to set this to zero because the recipient\n      // can call this function again as part of the receiving call\n      // before 'send' returns.\n      balances[msg.sender] = 0;\n      if (!msg.sender.send(total)) {\n        // No need to call throw here, just reset the amount owing\n        balances[msg.sender] = total;\n        return false;\n      }\n    }\n    return true;\n  }\n\n\n  /**\n    * @dev Calls to `kill` only have an effect if\n    * they are made by the owner.\n    * Remove the contract from the blockchain\n    */\n  function kill() public onlyOwner {\n    selfdestruct(owner);\n  }\n}\n",
  "sourcePath": "/Users/ivanmolto/Documents/delivery-dp-2018/contracts/Attrition.sol",
  "compiler": {
    "name": "solc",
    "version": "0.4.24+commit.e67f0147.Emscripten.clang"
  },
  "schemaVersion": "2.0.1",
  "updatedAt": "2018-08-28T08:55:31.834Z"
}